:020000040800F2
:1000000068050020C9000008A9130008191000089D
:1000100000000000000000000000000000000000E0
:10002000000000000000000000000000AD13000808
:100030000000000000000000AB1300083D140008A1
:10004000DB00000800000000DB000008DB00000807
:10005000DB000008DB000008DB000008DB00000814
:1000600000000000DB000008DB000008DB000008E7
:10007000DB000008DB000008DB00000800000000D7
:10008000DB0000080000000000000000DB000008AA
:1000900000000000DB000008DB000008DB000008B7
:1000A00000000000DB00000800000000DB0000088A
:1000B0000448854600F0A4F800480047391E0008AF
:1000C000C046C046680500200448804704480047F1
:1000D000FEE7FEE7FEE7FEE7FEE7FEE7ED140008B9
:1000E000B100000830B50B46014600202022012453
:1000F00009E00D46D5409D4205D31D469540491B5C
:100100002546954040191546521E002DF1DC30BDA4
:1001100070B500242546002801DA01244042002958
:1001200001DA01254942FFF7DDFFAC4200D0404231
:10013000002C00D0494270BDF0B51FB40646002027
:1001400082B005464024019100901BE001992246AF
:100150000F46304600F020F8049A059B801A99411A
:1001600010D310461946224600F039F8361A8F414E
:100170000197224601200021009F00F030F8381836
:100180004D4100902046641E0028DFDC019B009852
:100190002946324607B0F0BD10B5202A04DB0846D8
:1001A000203AD040002110BD0B46D340D04020243F
:1001B000A21A91400843194610BDD2B201E0027064
:1001C000401C491EFBD270470022F6E710B51346CB
:1001D0000A4604461946FFF7F0FF204610BD10B549
:1001E000202A04DB0146203A9140002010BD9140B6
:1001F00020239C1A0346E3401943904010BD0000A1
:10020000064C0125064E05E0E36807CC2B430C3C69
:1002100098471034B442F7D3FFF74EFF741F00081D
:10022000941F000810B50A480278C11E012A0AD09E
:10023000022A07D10122027008890649401880B2BB
:1002400001F056F910BD022202700878F8E70000AC
:100250001F0000206603000010B53C2001F0C4FD23
:100260000C480078012814D10A4CE41EA068401EF6
:10027000A06001D5D220A06020890749401880B233
:1002800001F036F9A0680A2148430449401801F0FA
:100290008FF810BD1F00002066030000FC21000045
:1002A00070B5154D2878EC1E012812D1A068401EAB
:1002B000A06001D5D220A06020891049401880B2EA
:1002C00001F016F9A0680A2148430D49401801F0D1
:1002D0006FF8287802280DD12078401E0006000E05
:1002E000207001D110202070C0B201F001F92078F7
:1002F00001F010FE70BD00001F000020660300002A
:10030000FC2100007047000010B53C2001F06CFD9E
:100310000D480078012815D10B4CE41EA068401C44
:10032000A060D22801DD0020A06020890749401884
:1003300080B201F0DDF8A0680A2148430449401862
:1003400001F036F810BD00001F0000206603000019
:10035000FC21000070B5154D2878EC1E012813D142
:10036000A068401CA060D22801DD0020A060208988
:100370000F49401880B201F0BBF8A0680A21484339
:100380000C49401801F014F8287802280DD1207883
:10039000401CC0B22070102801D901202070C0B2CA
:1003A00001F0A6F8207801F0B5FD70BD1F00002017
:1003B00066030000FC21000072B6FEE7FCB50023D6
:1003C0000124A1E027462A469F403A4073D04D6859
:1003D000012D05D0022D03D0112D01D0122D16D1E3
:1003E00085680326AC465D00AE46AE406546B54323
:1003F000AC46CE687546AE4065462E43866046687C
:100400000D79BE43ED06ED0F9D4035434560C6684E
:100410005F000325BD40AE46AE4335468E68BE4004
:100420002E43C6604E68022E01D0122E14D1DE0873
:10043000B60036180196366A5D07B446EE0E0F25F3
:10044000B54000966646AE43B4460D69009EB54081
:1004500066462E43019D2E6206687546AE430D79B1
:10046000AD07AD0FBD40354305604D68ED004AD581
:10047000284DAE692643AE61AD699E08ED07ED0FCC
:100480000095254DB6007519AC46AD689E07360F30
:100490000F27B740BD430927FF06B84201D1002707
:1004A00010E01E4FB84201D101270BE01C4FB842AB
:1004B00002D1022706E026E01A4FB84201D10327F5
:1004C00000E00527B7402F436546AF60164E3568FC
:1004D0004F689543FF0300D51543356075684F6835
:1004E0009543BF0300D515437560B5684F689543C4
:1004F000FF0200D51543B560F5684F689543BF020C
:1005000000D51543F5605B1C0A681546DA4000D03B
:1005100058E7FCBD00100240000001400004004804
:1005200000080048000C0048000401400069084031
:1005300000D001207047002A01D08161704781629C
:1005400070470000014880687047000038000020B4
:1005500070B5024640325378202B1CD11378012B02
:1005600019D00123137024245470046825689D4316
:100570002560046825681E03B54325600468256866
:100580000D43256000680168194301602020507008
:100590000020107070BD022070BD70B50246403260
:1005A0005378202B1BD11378012B18D00124147001
:1005B0002423537003681D68A5431D6005682B68DC
:1005C0000F263602B3430902194329600068016807
:1005D00021430160202050700020107070BD022067
:1005E00070BD000070B5040006D02546403568781F
:1005F0000026002802D005E0012070BD2E702046A4
:1006000000F0F0F82420687020680168490849006B
:1006100001600F216068090688432168086121682C
:100620008A680120C00382438A60E1680129A168C9
:1006300008D021229202114322689160E1680229C8
:1006400002D005E00143F7E701212268C9025160A9
:1006500021684A680F4B1A434A602168CA6882437E
:10066000CA60616920690843A169090208432168D9
:10067000C860216AE0690843216808602068016851
:100680000122114301606664202068702663AE7009
:10069000002070BD00800002FFB5054604464035CD
:1006A000687883B0202872D10C98002814D00D9857
:1006B000002811D02878012869D001202870FFF780
:1006C00041FF0746012200901923D103204600F084
:1006D00031FD002871D103E00120400260646CE02C
:1006E000212068704020A870002666640C98606223
:1006F0000D98608566630E980090019704A90EC955
:10070000204600F0D3FC002801D02E7055E0608D0B
:10071000FF2805D9FF22228501231B06009606E04B
:10072000608D20850096208D0123C2B25B06204695
:10073000049900F0EBFC3A4620460E9900F047FD84
:1007400000283AD1606A216800788862606A401C9B
:100750006062608D401E6085208D401E80B22085C5
:10076000618D00291FD000281DD100970022802113
:1007700020460E9B00F0DEFC00281ED1608DFF2875
:1007800006D9FF22228501231B06009607E024E0FC
:10079000608D20850096208D0123C2B25B06204625
:1007A000049900F0B3FC608D0028C4D13A4620467D
:1007B0000E9900F0E6FC002802D0012007B0F0BD41
:1007C00020682021C16120684268054B1A404260C0
:1007D0006970AE702E700020F0E70220EEE7000096
:1007E00000E800FE10B586B0044614216846FFF705
:1007F000EBFC13492068884220D1124C616901202A
:100800004004014361616169014003200591400298
:1008100000901220019001200290032003900420F8
:10082000049009206946C006FFF7C8FDE169012070
:1008300040050143E161E1690140059106B010BD49
:100840000054004000100240024881680278891874
:10085000816070473800002010B5064801681022FA
:1008600011430160002000F007F800F027F8002095
:1008700010BD00000020024070B504460D4D7D20E3
:100880002978C000FFF72EFC01460B480068FFF7EF
:1008900029FC00F043FB002809D1042C07D20022D8
:1008A0002146401E00F01EF800206C6070BD012043
:1008B00070BD0000380000204400002008B5084842
:1008C0008169012211438161816911400091C269EE
:1008D00001040A43C261C0690840009008BD0000DD
:1008E0000010024010B501F003F910BDF8B505463F
:1008F0000068354CC00352D5E0690026C00007D41B
:10090000E16920040143E161E169014001260091B0
:100910002E480168C90510D4016882151143016091
:10092000FFF710FE074604E0FFF70CFEC01B64282B
:1009300024D826480068C005F6D5206A03273F0260
:10094000384020D06968394081421CD0206A226A30
:10095000B843012109040A432262226A8A432262BF
:100960002062C0070FD0FFF7EDFD009008E0FFF711
:10097000E9FD0099411A1648814201D90320F8BDCA
:10098000206A8007F3D5206A6968B843084320626B
:10099000002E04D0E169012000078143E16128783D
:1009A000C00705D0206BA968800880000843206339
:1009B0002878800605D5206B10218843E968084314
:1009C00020630020F8BD00000010024000700040CD
:1009D00088130000F8B50F46060059D03A4D286834
:1009E000C007C00FB84209D2286840084000384309
:1009F00028602868C007C00FB84249D13068334C1E
:100A000081070CD5400704D5606807210902084317
:100A100060606068F0218843B168084360603078A6
:100A2000C00726D0706801280ED0216802280ED099
:100A3000890700292CDA616889088900014361600F
:100A4000FFF780FD00900DE021688903F1E789013F
:100A5000EFE7FFF777FD0099411A1D48814201D960
:100A60000320F8BD60680C21084071688900884245
:100A7000EFD12868C007C00FB8420BD928684008DA
:100A80004000384328602868C007C00FB84201D032
:100A90000120F8BD3078400706D5606807210902BB
:100AA0008843F1680843606000F028F86168094AEB
:100AB0000906090F515CC840074908600020FFF78C
:100AC000DBFE0020F8BD00000020024000100240C4
:100AD000881300005C1F00084400002004480549FA
:100AE00000684968044A4905490F515CC84070478D
:100AF00044000020001002406C1F000810B514A331
:100B00000FCB88B06C460FC415A30FCB0FC4184A87
:100B100051680C200B4603401648042B16D0082BB6
:100B200014D18B021B0F6C46E45CD26A04AB120733
:100B3000120F9A5CC90305D500231946FFF7FCFA8A
:100B4000214601E020460C4900F0ADFF08B010BD81
:100B500002030405060708090A0B0C0D0E0F1010FE
:100B60000102030405060708090A0B0C0D0E0F10FD
:100B70000010024000127A0000093D00FEB504009A
:100B800070D02078DC4DC0074AD068680007800F1D
:100B9000012807D068680007800F022809D168681B
:100BA000C00306D5286880033AD560680028E7D0DE
:100BB00036E06168012914D001208004002901D0A9
:100BC000052914D02A68012109048A432A6029686A
:100BD000814329606068002816D0FFF7B3FC064601
:100BE0000EE028680121090408432860F2E729681B
:100BF00001432960F5E7FFF7A5FC801B64286ED848
:100C000028688003F7D50BE0FFF79CFC064604E05C
:100C1000FFF798FC801B6428F1D828688003F7D47C
:100C200020780126800700283CDA68680007800FDA
:100C300007D068680007800F022809D16868C003E0
:100C400006D42868800716D5E06801280AD112E08A
:100C5000E0680028286816D030432860FFF772FC4F
:100C6000074605E043E1FFF76DFCC01B0228C6D82C
:100C700028688007F7D52868F82188432169C900CA
:100C8000084328600EE0400840002860FFF75AFC47
:100C9000074604E0FFF756FCC01B0228AFD82868BF
:100CA0008007F7D42078000722D5E0690028686A19
:100CB0000ED030436862FFF745FC074604E0FFF7BB
:100CC00041FCC01B02289AD8686A8007F7D50FE05C
:100CD000400840006862FFF735FC074605E09DE0EC
:100CE000FFF730FCC01B022889D8686A8007F7D458
:100CF000207804274007002860DA00200190E86986
:100D0000C00008D4E969B8060143E961E969014016
:100D100001200091019079480168C90511D401684A
:100D2000821511430160FFF70DFC009005E0FFF70D
:100D300009FC0099401A642870D870480068C00502
:100D4000F5D5A06801280AD0002801D0052810D0C8
:100D5000286A400840002862286AB84301E0286AEF
:100D600030432862A068002812D0FFF7EBFB009008
:100D70000AE0286A38432862F1E7FFF7E3FB0099AD
:100D8000411A5F48814249D8286A8007F5D50DE0AD
:100D9000FFF7D8FB009006E0FFF7D4FB0099411A5B
:100DA000574881423AD8286A8007F5D4019800282C
:100DB00004D0E969012000078143E9612078C00679
:100DC00035D5606901280CD0401D686B23D03843AD
:100DD0006863686B400840006863FFF7B3FB064632
:100DE00022E0686B38436863686B30436863FFF7E1
:100DF000A9FB064604E0FFF7A5FB801B02285BD891
:100E0000686B8007F7D5686BF8218843A169C90032
:100E1000084368630BE0B8436863F4E74CE0FFF70E
:100E200091FB801B022847D8686B8007F7D4206AA3
:100E300000285ED069680907890F022942D001267F
:100E400036060228286805D0B0432860FFF77AFBF1
:100E5000044633E0B0432860FFF774FB074604E024
:100E6000FFF770FBC01B022826D828688001F7D442
:100E7000E86AE16A000900010843E862616AA06A61
:100E8000084369683D22120491430843686028685A
:100E900030432860FFF756FB044604E0FFF752FB9F
:100EA000001B022808D828688001F7D521E0FFF749
:100EB00049FB001B022801D90320FEBD28688001E0
:100EC000F5D416E00128F8D06868E96A0122120416
:100ED000636A02409A420AD10907E26A090F914205
:100EE00005D10F2189040840A16A884201D0012060
:100EF000FEBD0020FEBD000000100240007000405A
:100F000088130000042204490428086902D0904391
:100F1000086170471043FBE700E000E0094910B5A5
:100F2000401E884201D9012010BD074C6061032199
:100F3000081F00F0DDFD0020A061072020610020D7
:100F400010BD0000FFFFFF0000E000E010B504004E
:100F500003D0A06F002802D007E0012010BD0021BF
:100F600074200155204600F027F82420A06720684F
:100F70000168490849000160204600F0B7FC0128DB
:100F8000ECD0606A002802D0204600F018FC2068EF
:100F900041680122D20291434160206881680822A1
:100FA000914381602068016801221143016020465D
:100FB00000F06AFC10BD000010B586B00446142194
:100FC0006846FFF701F91249206888421ED111488E
:100FD0008269012189030A43826182690A4005927C
:100FE0004269C9000A4342614069084005900C20EB
:100FF0000090022001900020029003200390012025
:10100000049009206946C006FFF7D8F906B010BD64
:101010000038014000100240FEE701688A69D243AF
:10102000920701D400228A6200688169C943C90716
:1010300003D081690122114381617047F7B50446ED
:1010400000680E468069C043C0062BD42027254681
:10105000403520688069C043800612D5701CF8D0E6
:10106000FFF770FA0299401AB04201D8002EF0D171
:10107000606C384360646F700020A8702870012095
:10108000FEBD21681020C8612068C7612046FFF7B7
:10109000C4FF20684168044A11404160606C04212B
:1010A0000843E7E70020FEBD00E800FEF8B504466F
:1010B000164615481D46DAB2C3020090079F204627
:1010C00000F024F83A462046069900F080F80028FF
:1010D00018D12846F5B2012809D02168300A886263
:1010E0003A462046069900F072F800280AD1206896
:1010F00085620097002280212046069B00F01AF8A6
:10110000002800D00120F8BD00200080F0B506685E
:10111000059C7568064F600D384385438805800D32
:10112000110408431843204305437560F0BD0000D7
:10113000FF63FF03F8B51D4617460E46044609E057
:10114000681C07D0FFF7FEF90699401AA8420BD891
:10115000002D09D020688169304688430FD00020D7
:10116000B842EDD00020F8BD616C202001436164DD
:10117000403460700020A07020700120F8BD012074
:10118000EEE770B516460D4604460FE03246294696
:101190002046FFF753FF002801D0012070BDFFF764
:1011A000D1F9801BA84208D8002D06D0206880699C
:1011B000C0438006EAD4002070BD616C202001434A
:1011C0006164403460700020A0702070E5E770B565
:1011D00016460D46044611E0324629462046FFF7E2
:1011E0002DFF002801D0012070BD681C06D0FFF73C
:1011F000A9F9801BA84208D8002D06D02068806974
:10120000C0438007E8D4002070BD616C20200143FA
:101210006164403460700020A0702070E3E700003B
:1012200010B5002219491A4800F06FFD1848002235
:101230001849283000F069FD174A0321144800F0CE
:1012400088FC164A0421124800F083FC144A062147
:101250000F4800F07EFC0E48124A0321283000F0AF
:1012600078FC0B48104A0421283000F072FC084832
:101270000E4A0621283000F06CFC054800F060FDA5
:101280000348283000F05CFD10BD0000C51E0008BA
:1012900048000020D31E0008A10200082502000813
:1012A0005902000855030008050300080903000857
:1012B00070B586B014216846FEF786FF154842696E
:1012C000012189050A43426142690A400592426947
:1012D00049110A434261406909260840F606059013
:1012E0000022E0213046FFF726F9032000240125E3
:1012F0006A4631C269463046FFF760F8E020009048
:1013000002946946019503943046FFF757F806B0FA
:1013100070BD00000010024010B513481149016073
:1013200012494160002181600161416181610122B6
:10133000C161C2600162FFF755F9002801D0FFF7D3
:101340003BF800210848FFF703F9002801D0FFF718
:1013500033F800210448FFF720F9002801D0FFF7F7
:101360002BF810BD00540040980000200E0900200A
:1013700010B50C480A4901604B2149024160002127
:101380008160C16001618161C1610C2201624261C1
:101390004162FFF7DBFD002801D0FFF70DF810BD1B
:1013A00000380140E4000020FEE77047704700006D
:1013B000FEB507461D4CF020207009206070022603
:1013C00014250123324622211948019602950094E2
:1013D000FFF762F9174818493818884207D80A21D8
:1013E000FEF780FE80011030010A217002E000202B
:1013F0002070102060700123032222210C480196E6
:1014000002950094FFF748F99020207007480123C7
:10141000401E007805227F3060702221044801962A
:1014200002950094FFF738F9FEBD00001D00002072
:101430009800002004DEFFFF3408000010B50A49C0
:101440000B680A480268934208D30B689A1A052A67
:1014500006D30968016000F085FC01E009680160BD
:10146000FFF7F2F910BD0000400000202C00002022
:1014700030B595B030216846FEF7A6FE00240F94E3
:101480000320009001200D94109412940190039079
:101490000E941394102004900003099000010C9402
:1014A00002250A90119408950B946846FFF766FB95
:1014B000002801D072B6FEE707200C900E9401219F
:1014C0000D950F940CA8FFF785FA002801D072B68D
:1014D000FEE7212010901294139410A8FFF706FA4B
:1014E000002801D072B6FEE715B030BD704700008D
:1014F00010B500F025FD024800F0C2F810BD000054
:1015000000000020FEB500F08BF8374C0025257058
:10151000032060700227142601233A462221334813
:10152000019702960094FFF7B7F80A2000F05CFCE0
:10153000257065700123032222212C480197029611
:101540000094FFF7A9F80A2000F04EFC0820207054
:1015500065700123042222212448019702960094F9
:10156000FFF79AF80A2000F03FFC902020708120BD
:1015700060700123052222211C48019702960094E5
:10158000FFF78AF80A2000F02FFC25706570012310
:10159000062222211548019702960094FFF77CF855
:1015A000322000F021FC00F023F80120257060704B
:1015B0000346022222210D48019702960094FFF76C
:1015C0006BF8322000F010FC2570657001230322B7
:1015D00022210648019702960094FFF75DF8322019
:1015E00000F002FC0020FEBD1D000020980000203D
:1015F00010B50020094954220A54401C0428FBDB82
:10160000064800F03DF87D20C00000F0EDFB002012
:1016100000F096FC014800F033F810BD00000020F7
:1016200010B5164886B04269012149040A43426157
:10163000406909240840059038200090012001905D
:1016400002900020E406039069462046FEF7B6FEAD
:10165000012280212046FEF76EFF01222021204634
:10166000FEF769FF012240212046FEF764FF0A20B1
:1016700000F0BAFB002006B010BD000000100240D0
:10168000F8B5064600246D46305D00F079FB28551C
:10169000641C042CF8DB19480078012826D0684621
:1016A00080784106490E684681700221002000F0D2
:1016B00027F80021012000F023F80021032000F08A
:1016C0001FF80024285D00F059F8002000F056F8BB
:1016D000641C042CF6DB092001222021C006FEF741
:1016E0002AFF0221084600F00BF8F8BD6946887809
:1016F0008021084369468870D7E700001F0000205A
:1017000070B50D4601001C4811D06C07640F01290B
:101710001AD0022920D0032908D100222021FEF767
:101720000AFF2807000FC03000F028F870BD002223
:1017300020210446FEF7FFFEA807800F00F01EF8E8
:1017400001222021204613E0002220210546FEF739
:10175000F2FE2046403006E0002220210546FEF73A
:10176000EAFE2046883000F009F8012220212846B0
:10177000FEF7E1FE70BD00000000004870B50024D7
:1017800009260546F606002240213046FEF7D3FE24
:10179000E80701D0012200E0002280213046FEF758
:1017A000CAFE6D08012000F01FFB012240213046D7
:1017B000FEF7C1FE641C082CE5DB002070BD10B5EF
:1017C000818CC90707D001684A6801235B049A43EA
:1017D000836A1A434A60818C890707D501684A6881
:1017E00001231B049A43C36A1A434A60818C490748
:1017F00007D501684A6801239B049A43036B1A4387
:101800004A60818C090707D501684A680123DB0318
:101810009A43436B1A434A60818CC90607D5026814
:10182000916801231B039943836B19439160818C59
:10183000890607D501688A6801235B039A43C36B55
:101840001A438A60818C490612D503685A680121BF
:101850000905046C8A4322435A60026C8A4207D10C
:101860000268516803235B059943436C1943516037
:10187000818C090607D501684A680123DB04806C66
:101880009A4302434A6010BDF8B5044600268030F2
:101890000660FEF757FE054620680068124F0007F5
:1018A00009D501212B46002249052046009700F06A
:1018B000ABF800280DD12068006840070BD5012146
:1018C0002B46002289052046009700F09DF800284D
:1018D00001D00320F8BD2020A067E06726666034B1
:1018E00026750020F8BD0000FFFFFF0170B504461B
:1018F00080682169E2690843616900251143084352
:1019000021680A683C4B1A4002430A602168486813
:10191000032212039043E26810434860A169206AE1
:10192000084321688A680B231B029A4302438A609A
:101930003248006B8007800F16D0012818D002288B
:1019400018D0032812D010210120E369C0032C4ACB
:101950002C4E83422BD100290ED002290FD004290E
:101960000FD008293FD110E00021EDE70221EBE77D
:101970000421E9E70821E7E7FFF7B0F803E01046A4
:1019800003E0FFF7BBF8002831D0616840004A0847
:101990008018FEF7A7FB80B201461039B14222D869
:1019A0001849491C01400007400F08431DE0002969
:1019B00006D0022907D0042907D0082913D108E04E
:1019C000FFF78CF803E0104603E0FFF797F80028D4
:1019D0000DD061684A081018FEF784FB80B20146FA
:1019E0001039B14201D9012501E02168C860002009
:1019F0006066A066284670BDF369FFFF00100240D4
:101A000000127A00EFFF0000FFB581B005460F46D7
:101A1000044660350A9E39E0701C37D0FEF792FD0F
:101A20000499401AB04222D8002E20D020680168C4
:101A300049072BD5C069C043000527D40120216880
:101A4000C002086220680168FF22A1329143016050
:101A5000206881684908490081602020A067E0670C
:101A60008034206000202875032005B0F0BD206878
:101A70000168FF22A1329143016020688168490812
:101A8000490081602020A067E067EBE72068C1691A
:101A90003846884305D0002103988142BCD00020FD
:101AA000E3E70121F8E7F8B5040C8BB2264682B2D1
:101AB0005E430D0C1046370C584336048019002144
:101AC000794116466E43370C360480197941264613
:101AD0006E438919F8BD30B47446641E2578641CC1
:101AE000AB4200D21D46635D5B00E31830BC184773
:101AF0008307FF22DB0E9A408907090E99400028D0
:101B000008DB830809489B001B18186890430843AA
:101B1000186070470007000F0838830804489B00CE
:101B20001B18D86990430843D861704700E400E06F
:101B300000ED00E002E008C8121F08C1002AFAD137
:101B400070477047002001E001C1121F002AFBD13D
:101B50007047890008188260704770B50446406875
:101B600080470146E078420702D02288521C22803A
:101B7000C309C7228B420FD00623D84101235B073C
:101B8000C0181A23D84183065B0FE070032B05D3DE
:101B90004006400EC90108431040E070C0B2410742
:101BA000490F00250B00FFF796FF060422467E2111
:101BB0009621C1094006C00F8142A07812D10007CA
:101BC000000FA070A168002901D020468847258019
:101BD000A07800090001401CA070E078C008C00097
:101BE000401C14E00007000F8030A07070BDC109D8
:101BF0004006C00F81420CD0A0780007000F1030C3
:101C0000A070E168002960D0204688475DE0E07060
:101C100070BD2088C828FBD9A0780007000F50307D
:101C2000A070E169002901D020468847E078C0080B
:101C3000C000401DEBE7C1094006C00F81421BD127
:101C4000A0780007000FA070A168002901D02046ED
:101C50008847A0780421C841890640181C21C84142
:101C6000A0702169002901D0204688472580E078AE
:101C7000C008C000C01CCAE720883C28C8D9A0788A
:101C80000007000F012802D0022804D039E03030CC
:101C9000A070616902E04030A070A169002930D0D5
:101CA000204688472DE0C1094006C00F8142AFD0D1
:101CB000A0780007000F1030A070E168002901D063
:101CC0002046884720883C281BD22580E078C00821
:101CD000C000801C9BE7C1094006C00F8142A0786C
:101CE00009D10007000F6030A070216A00298FD051
:101CF0002046884770BD0007000F1030A070E168D3
:101D0000CCE7E078C008C00081E770B50D46164604
:101D100004462821FEF758FAA0780007000F80300B
:101D2000A0706560A847C101E0784006400E0843F6
:101D3000BF210840F107490E0843E07070BD000064
:101D4000074A11680B4605E0814202D10020C043DA
:101D50007047496A0029F7D143621060002070473C
:101D60003000002010B50548046803E02046FFF766
:101D7000F4FE646A002CF9D110BD00003000002090
:101D800010B5134A044613180021303C403B092C7F
:101D900001D8197C19E00446413C052C01D8597A38
:101DA00013E0502808D0552808D0482808D04C28DF
:101DB00008D0542808D008E0117C06E0517C04E0EB
:101DC000917C02E0D17C00E0117D084610BD00004E
:101DD0000400002010B504460420FFF793F80148E2
:101DE000046010BD3400002070B500247D26054637
:101DF000F60003E0304600F005F8641CAC42F9D36D
:101E000070BD000070B50A4C002365690949A269DC
:101E100009684843A1699142FCD0914201D2521A0B
:101E200001E06E1AB218D3180A468342F2D370BD8D
:101E300000E000E034000020FEF70EFDFFF718FB85
:101E4000FFF736FAFFF794FAFFF766FAFFF75AFB47
:101E5000012000F045F8184D0A21A868174C4843A6
:101E60000019FFF7A5FAAF687D213819C9000646A9
:101E7000FEF74EF90C460C35287020466421FEF71B
:101E800047F9687020466421FEF742F9A8700A21DC
:101E90003046FEF73DF9E9702946012009390870FE
:101EA0000748381880B2FFF723FBFFF7B9F9302055
:101EB000FFF790FFFEE700001C000020FC2100005F
:101EC0006603000010B509200121C006FEF72EFBB5
:101ED00010BD10B509200221C006FEF727FB10BD7A
:101EE0003EB50A4909221423022401280CD0C2203D
:101EF00008704A700293009101940123022222216A
:101F00000348FEF7C9FB3EBDE220F1E71D000020BB
:101F1000980000200EB5084990220A707F30487062
:101F20001420022201920091029001230522222115
:101F30000248FEF7B1FB0EBD1D00002098000020F6
:101F400070B5054D03240A21FEF7CCF83031295530
:101F5000641EF8D570BD00000000002000000000E5
:101F60000000000001020304060708090000000049
:101F700001020304941F0008000000204800000034
:101F8000341B0008DC1F000848000020200500006A
:101F9000441B0008000000003F065B4F666D7D0794
:101FA0007F6F777C395E7971733E7638FF00000071
:101FB000040000000000000000000000000000001D
:101FC0000000000000000000000000000100000010
:0C1FD000040000000000000000127A0075
:04000005080000B13E
:00000001FF
